:02000000FB29DA
:10000800FF00030E8301AC000A08AD008A017008E6
:10001800A3007B08A2007C08A1007D08A0008B1C1F
:100028006A288B100608A60006186A28861C43282A
:10003800443086000430FB000C30FC003330FD00F7
:10004800FD0B2428FC0B2428FB0B242800000000AF
:10005800303086008618322870103328701406183D
:100068003728031438280310701C3E28031C3E2828
:1000780070143F287010701C42282E2869282830D8
:1000880086000430FB000C30FC003330FD00FD0B13
:100098004B28FC0B4B28FB0B4B280000000084303E
:1000A80086008618592870145A28701006185E2879
:1000B80003145F280310701C6528031C652870143E
:1000C80066287010701C692855281828260886008C
:1000D8002308F0002208FB002108FC002008FD008E
:0E00E8002D088A002C0E8300FF0E7F0E0900EB
:1000F600710DF80DF90D7408F8027508031C750FDB
:10010600F902F00DF10D0F30FC00710DF80DF90D2F
:100116007408701C9428F8027508031C750FF90200
:100126009928F80775080318750FF907F00DF10DF2
:10013600FC0B88287018A5287408F807750803189A
:08014600750FF9070000080025
:10014E00831203137408003A031DB6287508003A8B
:10015E00031DB628FF30F0007F30F1000F29831207
:10016E000313FD01F901F80171087004031900343D
:10017E0071087506FA00FA1BFD09FB01F51FCC2864
:10018E00F409F509F40A0319F50AF11FD328F00949
:10019E00F109F00A0319F10A71087504FA00FA1B45
:1001AE00E8287B207B18FB28FD1F0034F009F1099D
:1001BE00F00A0319F10AF809F909F80A0319F90AFC
:1001CE000034F51FF728F11BF3287108F9007008A9
:1001DE00F800F101F001DB28F101F001F00A003422
:1001EE00F109F009FB0AD828F80A0319F90A74086C
:1001FE007802031DDB2875087902031DDB28F9013F
:10020E00F801F00A0319F10AF11FDB280000FF3490
:02021E000800D6
:0E0220008312031329088A00280882000800B0
:10022E0083120313F8010830FC00700DF80D7408EA
:10023E00F80203182429F8070310F00DFC0B1C29F3
:02024E000800A6
:1002500010218A110A128000840AA80A0319A90A27
:08026000F003031D282908002A
:1002680083120313061586170F30AA002A08003CCC
:10027800031895290A30F4002A08F000172170089D
:10028800B1003108AB000A30F4002A08F000172149
:100298007808F0007008B0003008A70003302A0280
:1002A800AE00AF01031CAF030A30F4000030F500C4
:1002B8002E08F0002F08F100A7207008A4000A30CB
:1002C800F4000030F5002E08F0002F08F100A720F8
:1002D8007808F0007908F1007008A5003008870058
:1002E8000430310485002A08033C031C8229861344
:1002F8000617270888002B08890086292508880002
:10030800240889000230FB000430FC00BA30FD00EC
:10031800FD0B8C29FC0B8C29FB0B8C290000AA03F4
:100328003A2906110616061386161730AA002A0857
:10033800003C0318F7290A30F4002A08F0001721B6
:100348007008B1003108AB000A30F4002A08F00048
:1003580017217808F0007008B0003008A7000330B3
:100368002A02AE00AF01031CAF030A30F4000030CC
:10037800F5002E08F0002F08F100A7207008A4004F
:100388000A30F4000030F5002E08F0002F08F100C4
:10039800A7207808F0007908F1007008A500300857
:1003A8008800310889002A08033C031CE329061247
:1003B80086152708870004302B048500E8292508BE
:1003C80087000430240485000230FB000430FC0060
:1003D800BA30FD00FD0BEE29FC0BEE29FB0BEE29D4
:0E03E8000000AA039B29861186123429080002
:1003F6008B170B1683160313011307309F00033068
:100406008600890109088500050888000808870014
:1004160083128901090888000808870007088600F2
:0A0426000608850005153421172A89
:02400E004A2F37
:00000001FF
